:0400000054EF05F0C4
:1002000000524F4D2076616C75653A200000045015
:10021000800B0D6E045004240F6E03AE12EF01F03C
:1002200014EF01F015EF01F00F800F50D8B41BEF61
:1002300001F01DEF01F032EF01F00F28D8A423EFF9
:1002400001F025EF01F02DEF01F0000E016E000E20
:10025000026E000E036E000E046E038E000E046E1E
:100260003AEF01F0000E016E000E026E000E036EFA
:10027000000E046E0850800B0E6E0D500E18D8B490
:1002800044EF01F046EF01F047EF01F00D8C08500C
:1002900008240E6E07AE4FEF01F051EF01F052EF60
:1002A00001F00E800E50D8B458EF01F05AEF01F073
:1002B0006FEF01F00E28D8A460EF01F062EF01F0BB
:1002C0006AEF01F0000E056E000E066E000E076E5E
:1002D000000E086E078E000E086E77EF01F0000E1C
:1002E000056E000E066E000E076E000E086E0F50B3
:1002F0000E5CD8B07EEF01F080EF01F0A7EF01F0C7
:100300000DAC85EF01F087EF01F089EF01F0800E71
:100310000D1A0FC010F00EC00FF010C00EF001C08B
:1003200010F005C001F010C005F002C010F006C0CA
:1003300002F010C006F003C010F007C003F010C0B8
:1003400007F004C010F008C004F010C008F0000E60
:10035000106E0F500EC009F00A6A095E000E0A5AAC
:100360000ABEBCEF01F00A5009E11A0E095CD8A0E0
:10037000BCEF01F0BEEF01F0F5EF01F0015002100B
:1003800003100410D8A4C7EF01F0CAEF01F0010E6A
:10039000CBEF01F0000E106E000E016E000E026E2B
:1003A000000E036E000E046E0EC00FF0FEEF01F0A3
:1003B00010A0DDEF01F0DFEF01F0E5EF01F0D890E4
:1003C00010300109106EE7EF01F0D890103201A053
:1003D000ECEF01F0EEEF01F0EFEF01F0108E0434DE
:1003E00004320332023201320F2A0E500F5CD8A0C1
:1003F000FCEF01F0FEEF01F0D8EF01F00DBC03EFD0
:1004000002F005EF02F045EF02F00F50D8A40BEF19
:1004100002F00DEF02F017EF02F0000E016E000E79
:10042000026E000E036E000E046E66EF03F00550C0
:10043000012606500222075003220850042204A07D
:1004400024EF02F026EF02F0D2EF02F010A02BEF23
:1004500002F02DEF02F033EF02F0D89010300109D6
:10046000106E35EF02F0D890103201A03AEF02F092
:100470003CEF02F03DEF02F0108E04340432033200
:10048000023201320F2AD2EF02F00550015C065011
:100490000258075003580450800A096E0850800A19
:1004A0000958D8B056EF02F058EF02F083EF02F08F
:1004B0000150055C096E025006580A6E0350075839
:1004C0000B6E045008580C6EFF0E0924016EFF0ECF
:1004D0000A20026EFF0E0B20036EFF0E0C20046E2E
:1004E000800E0D1A106C1050D8A479EF02F07BEF3B
:1004F00002F08BEF02F0010E0126000E0222032211
:1005000004228BEF02F00550015E0650025A07509C
:10051000035A0850045A0150021003100410D8A4C2
:1005200094EF02F096EF02F0CBEF02F01050D8A457
:100530009CEF02F09EEF02F0CBEF02F0000E016E96
:10054000000E026E000E036E000E046E66EF03F0E6
:10055000D890013602360336043610AEB2EF02F000
:10056000B4EF02F0B5EF02F0018010A0BAEF02F094
:10057000BCEF02F0C0EF02F0D8801036C2EF02F0FC
:10058000D89010360F50D8B4C8EF02F0CAEF02F07E
:10059000CBEF02F00F0603AED0EF02F0D2EF02F085
:1005A000A8EF02F0000E0E6E10AED9EF02F0DBEFF6
:1005B00002F0F3EF02F010C009F07F0E0916D8B474
:1005C000E4EF02F0E6EF02F0EAEF02F0010E0E6E49
:1005D000F3EF02F001A0EFEF02F0F1EF02F0F3EF22
:1005E00002F0E6EF02F00E50D8B4F9EF02F0FBEFA4
:1005F00002F026EF03F0010E0126000E0222032274
:10060000042204A006EF03F008EF03F026EF03F046
:1006100001C009F002C00AF003C00BF004C00CF0E6
:100620000C340C320B320A32093209C001F00AC014
:1006300002F00BC003F00CC004F00F28D8B423EF75
:1006400003F025EF03F026EF03F00F2A0F28D8B4AC
:100650002CEF03F02EEF03F036EF03F00F50D8A489
:1006600034EF03F036EF03F048EF03F0000E016EB5
:10067000000E026E000E036E000E046E0F50D8A422
:1006800044EF03F046EF03F048EF03F0000E0D6E69
:100690000FA04DEF03F04FEF03F052EF03F0038E86
:1006A00053EF03F0039ED8900F30046E0DAE5BEF56
:1006B00003F05DEF03F05EEF03F0048E01C001F084
:1006C00002C002F003C003F004C004F01200096E7F
:1006D0000950D8B46EEF03F070EF03F092EF03F01F
:1006E00004BE77EF03F075EF03F092EF03F001C063
:1006F00005F002C006F003C007F004C008F0051EB4
:10070000061E071E081E052A000E062207220822C2
:1007100005C00BF006C00CF007C00DF008C00EF0CD
:100720009AEF03F001C00BF002C00CF003C00DF013
:1007300004C00EF00150021003100410D8A4A3EF5F
:1007400003F0A5EF03F0AFEF03F0000E016E000E13
:10075000026E000E036E000E046E40EF04F0960E63
:100760000A6EB9EF03F00A2AD8900E320D320C321D
:100770000B32000E0B14056E000E0C14066E000EEC
:100780000D14076EFE0E0E14086E055006100710AD
:100790000810D8A4CEEF03F0D0EF03F0B3EF03F0CE
:1007A000DEEF03F00A2A010E0B26000E0C220D22AA
:1007B0000E22D8900E320D320C320B32000E0B147A
:1007C000056E000E0C14066E000E0D14076EFF0E63
:1007D0000E14086E0550061007100810D8A4F3EF89
:1007E00003F0F5EF03F0D2EF03F0FDEF03F00A069C
:1007F000D8900B360C360D360E360DBE02EF04F0D7
:1008000004EF04F00CEF04F0020E0A600AEF04F0AB
:100810000CEF04F0F7EF03F00AB011EF04F013EF60
:1008200004F014EF04F00D9ED8900A320AC005F0CF
:10083000066A076A086A05C008F0076A066A056A58
:1008400005500B1206500C1207500D1208500E12D4
:100850000950D8B42EEF04F030EF04F038EF04F074
:1008600004BE37EF04F035EF04F038EF04F00E8EDD
:100870000BC001F00CC002F00DC003F00EC004F07C
:100880001200133414341A6E1A50D8A44AEF04F02C
:100890004CEF04F056EF04F0000E116E000E126ED5
:1008A000000E136E000E146EC3EF04F011C015F0AD
:1008B00012C016F013C017F014C018F0200E66EF27
:1008C00004F0D8901832173216321532E82E61EF44
:1008D00004F01550196E138EFF0E1116FF0E12162E
:1008E000FF0E1316000E1416960E1A5E1ABE7DEF3A
:1008F00004F07BEF04F093EF04F01A50800A970F96
:10090000D8B085EF04F087EF04F089EF04F04CEFE6
:1009100004F0D89014321332123211321A3E89EF99
:1009200004F0ABEF04F01F0E1A6499EF04F09BEF94
:1009300004F0A3EF04F04CEF04F0D8901136123617
:10094000133614361A061A50D8A4A9EF04F0ABEFE8
:1009500004F09DEF04F01950D8B4B1EF04F0B3EFF8
:1009600004F0BBEF04F0141E131E121E116C000ED7
:1009700012221322142211C011F012C012F013C05F
:1009800013F014C014F01200000E0F013B6F000EA4
:10099000956EF80E3A17F80E941637EC05F0800EA7
:1009A00072EC05F0010E036E020E046E06EC05F00B
:1009B000C00E72EC05F0C00E016E090E47EC05F09A
:1009C000C00E21EC05F0000E056E000E066E400E06
:1009D000076E420E086E1BC001F01CC002F01DC065
:1009E00003F01EC004F007EC01F001C011F002C0DA
:1009F00012F003C013F004C014F041EC04F01150E5
:100A00006AEC05F0DBEF04F000EF00F012EF05F008
:100A100003C0F6FF04C0F7FF0800F5506AEC05F0CC
:100A2000034A042A03C0F6FF04C0F7FF0800F5508C
:100A30000009D8A41EEF05F020EF05F008EF05F03F
:100A400012000F6E0FC0A9FFA68EA680A850016EDF
:100A5000026A036A046A000E67EC03F001C01BF02F
:100A600002C01CF003C01DF004C01EF01200380EBE
:100A700072EC05F00E0E72EC05F0010E72EC05F052
:100A8000060E72EC05F0800E72EC05F01200026E9C
:100A900001C0A9FF02C0A8FFA69EA684550EA76E9E
:100AA000AA0EA76EA68212001E6A1D6A1C6A1B6A25
:100AB000000EF86E020EF76E0001C4EF04F082849F
:100AC0001A0E016EF80EE82EFED7012EFCD700D0CC
:100AD00082941200026E02C083FF828082925FECD9
:100AE00005F01200026E02C082FF829082925FECDB
:040AF00005F01200FB
:020000040020DA
:08000000FFFFFFFFFFFFFFFF00
:020000040030CA
:0E000000FF091F3DFFB580FF03C003E0034072
:00000001FF
